{
  "contractName": "Land",
  "abi": [
    {
      "constant": false,
      "inputs": [
        {
          "name": "loan",
          "type": "uint256"
        },
        {
          "name": "asmADDR",
          "type": "address"
        }
      ],
      "name": "SendLoanToASM",
      "outputs": [],
      "payable": false,
      "stateMutability": "nonpayable",
      "type": "function"
    },
    {
      "constant": false,
      "inputs": [
        {
          "name": "state",
          "type": "bool"
        }
      ],
      "name": "LandDeedGiven",
      "outputs": [],
      "payable": true,
      "stateMutability": "payable",
      "type": "function"
    },
    {
      "constant": false,
      "inputs": [
        {
          "name": "loan",
          "type": "uint256"
        }
      ],
      "name": "sendLoanBack",
      "outputs": [],
      "payable": false,
      "stateMutability": "nonpayable",
      "type": "function"
    },
    {
      "inputs": [],
      "payable": true,
      "stateMutability": "payable",
      "type": "constructor"
    }
  ],
  "bytecode": "0x60606040526000600160156101000a81548160ff021916908315150217905550346002819055506102f1806100356000396000f300606060405260043610610057576000357c0100000000000000000000000000000000000000000000000000000000900463ffffffff168063419d11b81461005c57806383eefd341461009e578063e6b8ed89146100b8575b600080fd5b341561006757600080fd5b61009c600480803590602001909190803573ffffffffffffffffffffffffffffffffffffffff169060200190919050506100db565b005b6100b660048080351515906020019091905050610187565b005b34156100c357600080fd5b6100d96004808035906020019091905050610218565b005b806000806101000a81548173ffffffffffffffffffffffffffffffffffffffff021916908373ffffffffffffffffffffffffffffffffffffffff160217905550816002819055506000809054906101000a900473ffffffffffffffffffffffffffffffffffffffff1673ffffffffffffffffffffffffffffffffffffffff166108fc839081150290604051600060405180830381858888f19350505050151561018357600080fd5b5050565b80156101f15780600160146101000a81548160ff0219169083151502179055506101d2346000809054906101000a900473ffffffffffffffffffffffffffffffffffffffff166100db565b60018060156101000a81548160ff021916908315150217905550610215565b80600160146101000a81548160ff02191690831515021790555061021434610218565b5b50565b33600160006101000a81548173ffffffffffffffffffffffffffffffffffffffff021916908373ffffffffffffffffffffffffffffffffffffffff16021790555080600281905550600160009054906101000a900473ffffffffffffffffffffffffffffffffffffffff1673ffffffffffffffffffffffffffffffffffffffff166108fc829081150290604051600060405180830381858888f1935050505015156102c257600080fd5b505600a165627a7a723058204b5c1e76b26628638fb8cbd810ccb3b141179aa1c8780308c8bee8c299d0550b0029",
  "source": "pragma solidity ^0.4.18;\n\n//Funding Smart contract - ASM (Artisanal or Small Miners) are \"vetted\" by a series of questions and ratings provided\n\ncontract Funding {\n\n    //address asmADD = 0xa306084a0ed9cdfa1d54f9db0009bda0f35abdff; //unique address provided \n    address barricksFund; // address for barrick\n    bool state; //state after vetting on ASM : True or False (active or inactive)\n    int rating; //rating provided after vetting on ASM : between 1-3 (3 being worst)\n    uint funding; //amount loaned to contract then to small miner\n    Land checkLand;\n    \n    //constructor\n    function Funding() public payable{\n        barricksFund = msg.sender;\n        funding = msg.value;\n    }\n\n\n    //be able to receive ether payment for this contract through payable.\n    function SendFunds() public payable {\n        barricksFund = msg.sender;\n        barricksFund.transfer(msg.value);\n    }\n    \n\n\n    function Vetting(bool newState,int ratings) public payable {\n        //add rating+status to blockchain\n        if(newState){\n            rating = ratings;\n            state = newState;\n            checkLand = Land(msg.value);\n\n        }\n    }\n}\n\n\n//Land Smart contract - ASM (Artisanal or Small Miners) need to provide deed to land to receive funds\n\ncontract Land {\n    address asm; //ASM address \n    address barrick; //barrick address\n    bool deedOfLandGiven; //Has deeds of land been given by ASM : True or False \n    bool barrickOwnDeedOfLand = false; //Has Barrick changed ownership on land\n    uint funding; //amount loaned to contract then to small miner\n\n    function Land () public payable {\n        funding = msg.value;\n    }\n\n    //be able to .\n    function SendLoanToASM (uint loan, address asmADDR) public {\n        //funding sent\n        asm = asmADDR;\n        funding = loan; \n        asm.transfer(loan);\n    }\n\n    function sendLoanBack (uint loan) public {\n        //money sent back to Barrick\n        barrick = msg.sender;\n        funding = loan;\n        barrick.transfer(loan);\n    }\n    \n\n    function LandDeedGiven (bool state) public payable{\n        //add rating to blockchain\n        if(state){\n            deedOfLandGiven = state;\n            SendLoanToASM(msg.value,asm);\n            barrickOwnDeedOfLand = true;\n        }else{\n            deedOfLandGiven = state;\n            sendLoanBack(msg.value);\n        }\n        \n    }\n}\n",
  "sourcePath": "/home/fanzy/git/barrickInnovatesHack/ImageSelection/contracts/Funding.sol",
  "compiler": {
    "name": "solc",
    "version": "0.4.18+commit.9cf6e910.Emscripten.clang"
  },
  "schemaVersion": "1.0.1",
  "updatedAt": "2017-11-26T14:20:08.999Z"
}