{
  "contractName": "Funding",
  "abi": [
    {
      "constant": false,
      "inputs": [],
      "name": "SendFunds",
      "outputs": [],
      "payable": true,
      "stateMutability": "payable",
      "type": "function"
    },
    {
      "constant": false,
      "inputs": [
        {
          "name": "newState",
          "type": "bool"
        },
        {
          "name": "ratings",
          "type": "int256"
        }
      ],
      "name": "Vetting",
      "outputs": [],
      "payable": true,
      "stateMutability": "payable",
      "type": "function"
    },
    {
      "inputs": [],
      "payable": true,
      "stateMutability": "payable",
      "type": "constructor"
    }
  ],
  "bytecode": "0x6060604052336000806101000a81548173ffffffffffffffffffffffffffffffffffffffff021916908373ffffffffffffffffffffffffffffffffffffffff160217905550346002819055506101ba8061005a6000396000f30060606040526004361061004c576000357c0100000000000000000000000000000000000000000000000000000000900463ffffffff16806355a0bd9014610051578063c34ec1ce1461005b575b600080fd5b61005961007e565b005b61007c60048080351515906020019091908035906020019091905050610121565b005b336000806101000a81548173ffffffffffffffffffffffffffffffffffffffff021916908373ffffffffffffffffffffffffffffffffffffffff1602179055506000809054906101000a900473ffffffffffffffffffffffffffffffffffffffff1673ffffffffffffffffffffffffffffffffffffffff166108fc349081150290604051600060405180830381858888f19350505050151561011f57600080fd5b565b811561018a578060018190555081600060146101000a81548160ff02191690831515021790555034600360006101000a81548173ffffffffffffffffffffffffffffffffffffffff021916908373ffffffffffffffffffffffffffffffffffffffff1602179055505b50505600a165627a7a72305820918daf8570b64ebbf4a1861b04a8978d712d261822565c7ea286c5ed8525c2a20029",
  "source": "pragma solidity ^0.4.18;\n\n//Funding Smart contract - ASM (Artisanal or Small Miners) are \"vetted\" by a series of questions and ratings provided\n\ncontract Funding {\n\n    //address asmADD = 0xa306084a0ed9cdfa1d54f9db0009bda0f35abdff; //unique address provided \n    address barricksFund; // address for barrick\n    bool state; //state after vetting on ASM : True or False (active or inactive)\n    int rating; //rating provided after vetting on ASM : between 1-3 (3 being worst)\n    uint funding; //amount loaned to contract then to small miner\n    Land checkLand;\n    \n    //constructor\n    function Funding() public payable{\n        barricksFund = msg.sender;\n        funding = msg.value;\n    }\n\n\n    //be able to receive ether payment for this contract through payable.\n    function SendFunds() public payable {\n        barricksFund = msg.sender;\n        barricksFund.transfer(msg.value);\n    }\n    \n\n\n    function Vetting(bool newState,int ratings) public payable {\n        //add rating+status to blockchain\n        if(newState){\n            rating = ratings;\n            state = newState;\n            checkLand = Land(msg.value);\n\n        }\n    }\n}\n\n\n//Land Smart contract - ASM (Artisanal or Small Miners) need to provide deed to land to receive funds\n\ncontract Land {\n    address asm; //ASM address \n    address barrick; //barrick address\n    bool deedOfLandGiven; //Has deeds of land been given by ASM : True or False \n    bool barrickOwnDeedOfLand = false; //Has Barrick changed ownership on land\n    uint funding; //amount loaned to contract then to small miner\n\n    function Land () public payable {\n        funding = msg.value;\n    }\n\n    //be able to .\n    function SendLoanToASM (uint loan, address asmADDR) public {\n        //funding sent\n        asm = asmADDR;\n        funding = loan; \n        asm.transfer(loan);\n    }\n\n    function sendLoanBack (uint loan) public {\n        //money sent back to Barrick\n        barrick = msg.sender;\n        funding = loan;\n        barrick.transfer(loan);\n    }\n    \n\n    function LandDeedGiven (bool state) public payable{\n        //add rating to blockchain\n        if(state){\n            deedOfLandGiven = state;\n            SendLoanToASM(msg.value,asm);\n            barrickOwnDeedOfLand = true;\n        }else{\n            deedOfLandGiven = state;\n            sendLoanBack(msg.value);\n        }\n        \n    }\n}\n",
  "sourcePath": "/home/fanzy/git/barrickInnovatesHack/ImageSelection/contracts/Funding.sol",
  "compiler": {
    "name": "solc",
    "version": "0.4.18+commit.9cf6e910.Emscripten.clang"
  },
  "schemaVersion": "1.0.1",
  "updatedAt": "2017-11-26T13:25:55.244Z"
}