{
  "contractName": "Funding",
  "abi": [
    {
      "constant": false,
      "inputs": [],
      "name": "SendFunds",
      "outputs": [],
      "payable": true,
      "stateMutability": "payable",
      "type": "function"
    },
    {
      "constant": false,
      "inputs": [],
      "name": "get",
      "outputs": [
        {
          "name": "",
          "type": "uint256"
        }
      ],
      "payable": false,
      "stateMutability": "nonpayable",
      "type": "function"
    },
    {
      "constant": false,
      "inputs": [
        {
          "name": "newState",
          "type": "bool"
        },
        {
          "name": "ratings",
          "type": "int256"
        }
      ],
      "name": "Vetting",
      "outputs": [],
      "payable": true,
      "stateMutability": "payable",
      "type": "function"
    },
    {
      "inputs": [],
      "payable": true,
      "stateMutability": "payable",
      "type": "constructor"
    }
  ],
  "bytecode": "0x6060604052336000806101000a81548173ffffffffffffffffffffffffffffffffffffffff021916908373ffffffffffffffffffffffffffffffffffffffff160217905550346002819055506102158061005a6000396000f300606060405260043610610057576000357c0100000000000000000000000000000000000000000000000000000000900463ffffffff16806355a0bd901461005c5780636d4ce63c14610066578063c34ec1ce1461008f575b600080fd5b6100646100b2565b005b341561007157600080fd5b610079610155565b6040518082815260200191505060405180910390f35b6100b060048080351515906020019091908035906020019091905050610174565b005b336000806101000a81548173ffffffffffffffffffffffffffffffffffffffff021916908373ffffffffffffffffffffffffffffffffffffffff1602179055506000809054906101000a900473ffffffffffffffffffffffffffffffffffffffff1673ffffffffffffffffffffffffffffffffffffffff166108fc349081150290604051600060405180830381858888f19350505050151561015357600080fd5b565b60003073ffffffffffffffffffffffffffffffffffffffff1631905090565b81156101e5576101826100b2565b8060018190555081600060146101000a81548160ff02191690831515021790555034600360006101000a81548173ffffffffffffffffffffffffffffffffffffffff021916908373ffffffffffffffffffffffffffffffffffffffff1602179055505b50505600a165627a7a723058204e72d7f19efbe64a4fef1ce87848634eb66e6978c264248e419e5ea8ff97d4520029",
  "source": "pragma solidity ^0.4.18;\n\n//Funding Smart contract - ASM (Artisanal or Small Miners) are \"vetted\" by a series of questions and ratings provided\n\ncontract Funding {\n\n    //address asmADD = 0xa306084a0ed9cdfa1d54f9db0009bda0f35abdff; //unique address provided \n    address barricksFund; // address for barrick\n    bool state; //state after vetting on ASM : True or False (active or inactive)\n    int rating; //rating provided after vetting on ASM : between 1-3 (3 being worst)\n    uint funding; //amount loaned to contract then to small miner\n    Land checkLand;\n    \n    //constructor\n    function Funding() public payable{\n        barricksFund = msg.sender;\n        funding = msg.value;\n    }\n\n    function get() returns(uint) {\n      return this.balance;\n    }\n\n    //be able to receive ether payment for this contract through payable.\n    function SendFunds() public payable {\n        barricksFund = msg.sender;\n        barricksFund.transfer(msg.value);\n    }\n    \n\n\n    function Vetting(bool newState,int ratings) public payable {\n        //add rating+status to blockchain\n        if(newState){\n            SendFunds();\n            rating = ratings;\n            state = newState;\n            checkLand = Land(msg.value);\n\n        }\n    }\n}\n\n\n//Land Smart contract - ASM (Artisanal or Small Miners) need to provide deed to land to receive funds\n\ncontract Land {\n    address asm; //ASM address \n    address barrick; //barrick address\n    bool deedOfLandGiven; //Has deeds of land been given by ASM : True or False \n    bool barrickOwnDeedOfLand = false; //Has Barrick changed ownership on land\n    uint funding; //amount loaned to contract then to small miner\n\n    function Land () public payable {\n        funding = msg.value;\n    }\n\n    //be able to .\n    function SendLoanToASM (uint loan, address asmADDR) public {\n        //funding sent\n        asm = asmADDR;\n        funding = loan; \n        asm.transfer(loan);\n    }\n\n    function sendLoanBack (uint loan) public {\n        //money sent back to Barrick\n        barrick = msg.sender;\n        funding = loan;\n        barrick.transfer(loan);\n    }\n    \n\n    function LandDeedGiven (bool state) public payable{\n        //add rating to blockchain\n        if(state){\n            deedOfLandGiven = state;\n            SendLoanToASM(msg.value,asm);\n            barrickOwnDeedOfLand = true;\n        }else{\n            deedOfLandGiven = state;\n            sendLoanBack(msg.value);\n        }\n        \n    }\n}\n",
  "sourcePath": "/home/fanzy/git/barrickInnovatesHack/contracts/Funding.sol",
  "compiler": {
    "name": "solc",
    "version": "0.4.18+commit.9cf6e910.Emscripten.clang"
  },
  "schemaVersion": "1.0.1",
  "updatedAt": "2017-11-25T23:42:17.302Z"
}