{
  "contractName": "Funding",
  "abi": [
    {
      "constant": false,
      "inputs": [
        {
          "name": "newState",
          "type": "bool"
        },
        {
          "name": "ratings",
          "type": "int256"
        }
      ],
      "name": "Vetting",
      "outputs": [],
      "payable": false,
      "stateMutability": "nonpayable",
      "type": "function"
    },
    {
      "constant": false,
      "inputs": [
        {
          "name": "fund",
          "type": "uint256"
        },
        {
          "name": "ratings",
          "type": "int256"
        }
      ],
      "name": "Vetting",
      "outputs": [],
      "payable": true,
      "stateMutability": "payable",
      "type": "constructor"
    }
  ],
  "bytecode": "0x606060405233600360006101000a81548173ffffffffffffffffffffffffffffffffffffffff021916908373ffffffffffffffffffffffffffffffffffffffff1602179055503460028190555060c58061005a6000396000f300606060405260043610603f576000357c0100000000000000000000000000000000000000000000000000000000900463ffffffff168063c34ec1ce146044575b600080fd5b3415604e57600080fd5b606d60048080351515906020019091908035906020019091905050606f565b005b811560955780600181905550816000806101000a81548160ff0219169083151502179055505b50505600a165627a7a723058201881665e214ec45bebe8c2f8729f7d8a4a3f4080db5fdf026def8df217f546ca0029",
  "source": "pragma solidity ^0.4.18;\n\n//Funding Smart contract - ASM (Artisanal or Small Miners) are \"vetted\" by a series of questions and ratings provided\n\ncontract Funding {\n    bool state; //state after vetting on ASM : True or False (active or inactive)\n    int rating; //rating provided after vetting on ASM : between 1-3 (3 being worst)\n    uint funding; //amount loaned to contract then to small miner\n    address barricksFund;\n\n    //be able to receive ether payment for this contract through payable.\n    function Funding() payable {\n        barricksFund = msg.sender;\n        funding = msg.value;\n    }\n    \n\n\n    function Vetting(bool newState,int ratings) {\n        //add rating+status to blockchain\n        if(newState){\n            Funding(msg.value);\n            rating = ratings;\n            state = newState;\n        }\n    }\n}\n\n\n//Land Smart contract - ASM (Artisanal or Small Miners) need to provide deed to land to receive funds\n",
  "sourcePath": "/home/fanzy/git/barrickInnovatesHack/contracts/Funding.sol",
  "compiler": {
    "name": "solc",
    "version": "0.4.18+commit.9cf6e910.Emscripten.clang"
  },
  "schemaVersion": "1.0.1",
  "updatedAt": "2017-11-25T20:44:43.907Z"
}