{
  "contractName": "Funding",
  "abi": [
    {
      "constant": false,
      "inputs": [
        {
          "name": "fund",
          "type": "uint256"
        }
      ],
      "name": "SendFunds",
      "outputs": [],
      "payable": false,
      "stateMutability": "nonpayable",
      "type": "function"
    },
    {
      "constant": false,
      "inputs": [
        {
          "name": "newState",
          "type": "bool"
        },
        {
          "name": "ratings",
          "type": "int256"
        }
      ],
      "name": "Vetting",
      "outputs": [],
      "payable": false,
      "stateMutability": "nonpayable",
      "type": "function"
    }
  ],
  "bytecode": "0x606060405273a306084a0ed9cdfa1d54f9db0009bda0f35abdff6000806101000a81548173ffffffffffffffffffffffffffffffffffffffff021916908373ffffffffffffffffffffffffffffffffffffffff16021790555073fd7597af18fb14fe283bee7279ca3dda4115df28600160006101000a81548173ffffffffffffffffffffffffffffffffffffffff021916908373ffffffffffffffffffffffffffffffffffffffff16021790555034156100b857600080fd5b61014e806100c76000396000f30060606040526004361061004c576000357c0100000000000000000000000000000000000000000000000000000000900463ffffffff168063877fa05e14610051578063c34ec1ce14610074575b600080fd5b341561005c57600080fd5b61007260048080359060200190919050506100a2565b005b341561007f57600080fd5b6100a0600480803515159060200190919080359060200190919050506100ed565b005b33600460006101000a81548173ffffffffffffffffffffffffffffffffffffffff021916908373ffffffffffffffffffffffffffffffffffffffff1602179055508060038190555050565b811561011e576100fc346100a2565b8060028190555081600160146101000a81548160ff0219169083151502179055505b50505600a165627a7a72305820b0ab331fdf29429942879524102007c65ba14277d6a64bb1cc4e4fdec4a5050a0029",
  "source": "pragma solidity ^0.4.18;\n\n//Funding Smart contract - ASM (Artisanal or Small Miners) are \"vetted\" by a series of questions and ratings provided\n\ncontract Funding {\n\n    address asmADD = 0xa306084a0ed9cdfa1d54f9db0009bda0f35abdff; //unique address provided \n    address barrickADD = 0xfd7597af18fb14fe283bee7279ca3dda4115df28; // address for barrick\n    bool state; //state after vetting on ASM : True or False (active or inactive)\n    int rating; //rating provided after vetting on ASM : between 1-3 (3 being worst)\n    uint funding; //amount loaned to contract then to small miner\n    address barricksFund;\n\n    //be able to receive ether payment for this contract through payable.\n    function SendFunds (uint fund) {\n        barricksFund = msg.sender;\n        funding = fund;\n    }\n    \n\n\n    function Vetting(bool newState,int ratings) {\n        //add rating+status to blockchain\n        if(newState){\n            SendFunds(msg.value);\n            rating = ratings;\n            state = newState;\n        }\n    }\n}\n\n\n//Land Smart contract - ASM (Artisanal or Small Miners) need to provide deed to land to receive funds\n\ncontract Land {\n    address asm; //ASM address \n    address barrick = 0xfd7597af18fb14fe283bee7279ca3dda4115df28; //barrick address\n    bool deedOfLandGiven; //Has deeds of land been given by ASM : True or False \n    bool barrickOwnDeedOfLand = false; //Has Barrick changed ownership on land\n    uint funding; //amount loaned to contract then to small miner\n\n    //be able to receive ether payment for this contract through payable.\n    function SendLoanToASM (uint loan, address asmADDR) {\n        //funding sent\n        asm = asmADDR;\n        funding = loan; \n    }\n\n    function sendLoanBack (uint loan, address barrADDR){\n        //money sent back to Barrick\n        barrick = barrADDR;\n        funding = loan;\n    }\n    \n\n    function LandDeedGiven (bool state) {\n        //add rating to blockchain\n        if(state){\n            deedOfLandGiven = state;\n            SendLoanToASM(funding,0xa306084a0ed9cdfa1d54f9db0009bda0f35abdff);\n            barrickOwnDeedOfLand = true;\n        }else{\n            deedOfLandGiven = state;\n            sendLoanBack(funding,barrick);\n        }\n        \n    }\n}\n",
  "sourcePath": "/home/fanzy/git/barrickInnovatesHack/contracts/Funding.sol",
  "compiler": {
    "name": "solc",
    "version": "0.4.18+commit.9cf6e910.Emscripten.clang"
  },
  "schemaVersion": "1.0.1",
  "updatedAt": "2017-11-25T19:13:23.553Z"
}