{
  "contractName": "Land",
  "abi": [
    {
      "constant": false,
      "inputs": [
        {
          "name": "loan",
          "type": "uint256"
        },
        {
          "name": "asmADDR",
          "type": "address"
        }
      ],
      "name": "SendLoanToASM",
      "outputs": [],
      "payable": false,
      "stateMutability": "nonpayable",
      "type": "function"
    },
    {
      "constant": false,
      "inputs": [
        {
          "name": "state",
          "type": "bool"
        }
      ],
      "name": "LandDeedGiven",
      "outputs": [],
      "payable": false,
      "stateMutability": "nonpayable",
      "type": "function"
    },
    {
      "constant": false,
      "inputs": [
        {
          "name": "loan",
          "type": "uint256"
        },
        {
          "name": "barrADDR",
          "type": "address"
        }
      ],
      "name": "sendLoanBack",
      "outputs": [],
      "payable": false,
      "stateMutability": "nonpayable",
      "type": "function"
    }
  ],
  "bytecode": "0x606060405273fd7597af18fb14fe283bee7279ca3dda4115df28600160006101000a81548173ffffffffffffffffffffffffffffffffffffffff021916908373ffffffffffffffffffffffffffffffffffffffff1602179055506000600160156101000a81548160ff021916908315150217905550341561007f57600080fd5b6102738061008e6000396000f300606060405260043610610057576000357c0100000000000000000000000000000000000000000000000000000000900463ffffffff168063419d11b81461005c57806383eefd341461009e578063e0e96648146100c3575b600080fd5b341561006757600080fd5b61009c600480803590602001909190803573ffffffffffffffffffffffffffffffffffffffff16906020019091905050610105565b005b34156100a957600080fd5b6100c160048080351515906020019091905050610150565b005b34156100ce57600080fd5b610103600480803590602001909190803573ffffffffffffffffffffffffffffffffffffffff169060200190919050506101fb565b005b806000806101000a81548173ffffffffffffffffffffffffffffffffffffffff021916908373ffffffffffffffffffffffffffffffffffffffff160217905550816002819055505050565b80156101af5780600160146101000a81548160ff02191690831515021790555061019060025473a306084a0ed9cdfa1d54f9db0009bda0f35abdff610105565b60018060156101000a81548160ff0219169083151502179055506101f8565b80600160146101000a81548160ff0219169083151502179055506101f7600254600160009054906101000a900473ffffffffffffffffffffffffffffffffffffffff166101fb565b5b50565b80600160006101000a81548173ffffffffffffffffffffffffffffffffffffffff021916908373ffffffffffffffffffffffffffffffffffffffff1602179055508160028190555050505600a165627a7a7230582004a5526b0bb12bc10fa797c7e931766313fe2096553fb7a69f091ecf46c084240029",
  "source": "pragma solidity ^0.4.18;\n\n//Funding Smart contract - ASM (Artisanal or Small Miners) are \"vetted\" by a series of questions and ratings provided\n\ncontract Funding {\n\n    address asmADD = 0xa306084a0ed9cdfa1d54f9db0009bda0f35abdff; //unique address provided \n    address barrickADD = 0xfd7597af18fb14fe283bee7279ca3dda4115df28; // address for barrick\n    bool state; //state after vetting on ASM : True or False (active or inactive)\n    int rating; //rating provided after vetting on ASM : between 1-3 (3 being worst)\n    uint funding; //amount loaned to contract then to small miner\n    address barricksFund;\n\n    //be able to receive ether payment for this contract through payable.\n    function SendFunds (uint fund) {\n        barricksFund = msg.sender;\n        funding = fund;\n    }\n    \n\n\n    function Vetting(bool newState,int ratings) {\n        //add rating+status to blockchain\n        if(newState){\n            SendFunds(msg.value);\n            rating = ratings;\n            state = newState;\n        }\n    }\n}\n\n\n//Land Smart contract - ASM (Artisanal or Small Miners) need to provide deed to land to receive funds\n\ncontract Land {\n    address asm; //ASM address \n    address barrick = 0xfd7597af18fb14fe283bee7279ca3dda4115df28; //barrick address\n    bool deedOfLandGiven; //Has deeds of land been given by ASM : True or False \n    bool barrickOwnDeedOfLand = false; //Has Barrick changed ownership on land\n    uint funding; //amount loaned to contract then to small miner\n\n    //be able to receive ether payment for this contract through payable.\n    function SendLoanToASM (uint loan, address asmADDR) {\n        //funding sent\n        asm = asmADDR;\n        funding = loan; \n    }\n\n    function sendLoanBack (uint loan, address barrADDR){\n        //money sent back to Barrick\n        barrick = barrADDR;\n        funding = loan;\n    }\n    \n\n    function LandDeedGiven (bool state) {\n        //add rating to blockchain\n        if(state){\n            deedOfLandGiven = state;\n            SendLoanToASM(funding,0xa306084a0ed9cdfa1d54f9db0009bda0f35abdff);\n            barrickOwnDeedOfLand = true;\n        }else{\n            deedOfLandGiven = state;\n            sendLoanBack(funding,barrick);\n        }\n        \n    }\n}\n",
  "sourcePath": "/home/fanzy/git/barrickInnovatesHack/contracts/Funding.sol",
  "compiler": {
    "name": "solc",
    "version": "0.4.18+commit.9cf6e910.Emscripten.clang"
  },
  "schemaVersion": "1.0.1",
  "updatedAt": "2017-11-25T19:12:35.038Z"
}